:1000000000FDFF1F10040000A4010000A401000077
:10001000A4010000A4010000A4010000A40100004C
:10002000A4010000A4010000A4010000A40100003C
:10003000A4010000A4010000A4010000A40100002C
:10004000A4010000A4010000A4010000A40100001C
:10005000A4010000A4010000A4010000A40100000C
:10006000A4010000A4010000A4010000A4010000FC
:10007000A4010000A4010000A4010000A4010000EC
:10008000A4010000A4010000A4010000A4010000DC
:10009000A4010000A4010000A4010000A4010000CC
:1000A000A4010000A4010000A4010000A4010000BC
:1000B000A4010000A4010000A4010000A4010000AC
:1001000000B500F004F872B600F020F800BD72B639
:1001100025480021016000B54FF011314A185318ED
:100120005C1865186E1877188846B8448946C1442B
:100130008A46CA448B46D3448C46DC449646E64401
:100140000846704480F30088184800BD0FB4184872
:100150004FF4007102680A43026016484FF0807144
:10016000C160016114484FF48031016013480421DB
:100170004170134A8021117002210170022182799D
:100180001142FCD0102182791142FCD1C278602149
:10019000A0238A431A43C2700C2182791142FCD1F8
:1001A0000FBC7047FEE7C0460081044013012505DF
:1001B00038800440009004404480044000400640E1
:0401C00000500640A5
:0401C4006745230167
:10040000FFFFFFFFFFFFFFFFFFFFFFFF7EFFFFFF7D
:080410003AFFFFEBFEFFFFEADB
:0400000300000410E5
:00000001FF
