:020000040000FA
:1000000000FDFF1F110400009D0100009D01000084
:100010009D0100009D0100009D0100009D01000068
:100020009D0100009D0100009D0100009D01000058
:100030009D0100009D0100009D0100009D01000048
:100040009D0100009D0100009D0100009D01000038
:100050009D0100009D0100009D0100009D01000028
:100060009D0100009D0100009D0100009D01000018
:100070009D0100009D0100009D0100009D01000008
:100080009D0100009D0100009D0100009D010000F8
:100090009D0100009D0100009D0100009D010000E8
:1000A0009D0100009D0100009D0100009D010000D8
:1000B0009D0100009D0100009D0100009D010000C8
:1000C0000000000000000000000000000000000030
:1000D0000000000000000000000000000000000020
:1000E0000000000000000000000000000000000010
:1000F0000000000000000000000000000000000000
:1001000000B500F004F872B600F01FF800BD72B63A
:1001100023480021016000B522494A1853185C1891
:1001200065186E1877188846B8448946C1448A46CF
:10013000CA448B46D3448C46DC449646E644084683
:10014000704480F30088184800BD0FB41748184960
:1001500002680A43026017481749C16001611748E5
:1001600017490160174804214170174A8021117016
:1001700002210170022182791142FCD01021827982
:100180001142FCD1C2786021A0238A431A43C27075
:100190000C2182791142FCD10FBC7047FEE70000B0
:1001A000008104401111111113012505388004400C
:1001B0000002000000900440000000014480044060
:1001C0000000010000400640005006400D0A0045B6
:1001D0006E746572206669727374203132382D62D4
:1001E000757420686578206E756D6265723A20209E
:1001F000202020307800456E746572203132382D11
:1002000062757420686578206E756D626572207401
:100210006F206164643A20202020307800496E7697
:10022000616C6964206E756D6265722D2D747279D2
:1002300020616761696E3A20202020202020202044
:100240002030780053756D3A202020202020202077
:10025000202020202020202020202020202020209E
:1002600020202020202020203078004F5645524664
:100270004C4F57000000000000000000000000008C
:10028000000000000000000000000000000000006E
:10029000000000000000000000000000000000005E
:1002A000000000000000000000000000000000004E
:1002B000000000000000000000000000000000003E
:1002C000000000000000000000000000000000002E
:1002D000000000000000000000000000000000001E
:1002E000000000000000000000000000000000000E
:1002F00000000000000000000000000000000000FE
:1003000000000000000000000000000000000000ED
:1003100000000000000000000000000000000000DD
:1003200000000000000000000000000000000000CD
:1003300000000000000000000000000000000000BD
:1003400000000000000000000000000000000000AD
:10035000000000000000000000000000000000009D
:10036000000000000000000000000000000000008D
:10037000000000000000000000000000000000007D
:10038000000000000000000000000000000000006D
:10039000000000000000000000000000000000005D
:1003A000000000000000000000000000000000004D
:1003B000000000000000000000000000000000003D
:1003C000000000000000000000000000000000002D
:1003D000000000000000000000000000000000001D
:1003E000000000000000000000000000000000000D
:1003F00000000000000000000000000000000000FD
:10040000FFFFFFFFFFFFFFFFFFFFFFFF7EFFFFFF7D
:1004100072B6FFF775FE00F030F8BF48FF2100F01C
:1004200060F9BE48042100F0A4F801D300F05BF8A5
:10043000BB48FF2100F055F9BA48042100F099F8B3
:1004400001D300F050F8B848FF2100F04AF9B7484E
:10045000B249B44A042300F059F806D3B448FF2146
:1004600000F03FF900F04CF8D7E7B048042100F065
:10047000B0F800F045F8D0E7FEE707B4B048B1495E
:1004800002688A43B0490A430260B048B049026832
:100490008A430260AF48B04902680A430260AF482D
:1004A000AD4902680A430260AD48AE490160AE48FA
:1004B000AC490160AD480C21C2788A43C270012169
:1004C00001703821417000218170002181710F215C
:1004D00081720021C1721F210171C02141710C2163
:1004E000C17007BC704730B504000D009148FF2172
:1004F00000F0F7F82900200000F03BF8F6D230BDFC
:1005000003B58D48FF2100F0ECF803BDF8B50700F6
:100510009B00001CEFF300861B1FC85800F011F869
:100520000400D05800F00DF80500380086F300886C
:100530006C41EFF30086C450002BEDD186F30088A8
:10054000F8BD0EB401000200FF231940090608009F
:1005500011001B0219400902084311001B02194037
:10056000090A084311001B021940090E08430EBC7A
:100570007047F7B504000D0089B06846C900013125
:1005800000F06FF800F02FF86E46002710210139B7
:10059000F05D002813D000F038F818D202000137BF
:1005A000F05D00280AD000F030F810D200011043AE
:1005B000605400290AD001390137E9E7100060547E
:1005C0000020002902D001396054FAE7003009B058
:1005D000F7BD13B50400206800F02BF8043401398E
:1005E0000029F8D113BDF0B400240025065D0134C4
:1005F000002EFBD1023C065D475D46550755013C88
:100600000135AC42F7DAF0BC704730280ED33A28F7
:1006100001D341280AD3612800D32038412800D3D0
:10062000073830380F2801D8003001E001200138A8
:1006300070471EB550490823002B11D00A00024014
:100640001C00013CA400E2400A2A00DB07323032E1
:100650000400100000F03AF8200009095B1EEBE7E7
:100660001EBD1FB5002925D0491E0200002300F041
:1006700022F80D2818D008280AD07F28F7D01F2884
:10068000F5D98B42F3D2D0545B1C00F01FF8EEE793
:10069000002BECD000F01AF8202000F017F808200A
:1006A00000F014F85B1EE2E70024D4542248FF2136
:1006B00000F017F81FBD02B420213148007808402F
:1006C0000028FAD02F48007802BC704706B4802179
:1006D0002B4A12780A40002AFAD02A4A107006BC27
:1006E00070470FB5020000238B4206D0D05C002873
:1006F00003D0FFF7EBFF5B1CF6E70FBD00280AD025
:1007000004B40022814202D3091A521CFAE71000F5
:100710000122013204BC7047CF01000000FDFF1F21
:10072000F601000010FDFF1F4402000020FDFF1F26
:100730006B0200001D020000CC0100000000000060
:10074000048004400000000C0000000410800440FD
:10075000050001003480044000040000388004409B
:1007600008A004400002000104A0044000A00640CC
:100770000000000000000000000000F00000000089
:1007800004A0064007A00640000000000000000092
:100790000000000000000000000000000000000059
:1007A0000000000000000000000000000000000049
:1007B0000000000000000000000000000000000039
:1007C0000000000000000000000000000000000029
:1007D0000000000000000000000000000000000019
:1007E0000000000000000000000000000000000009
:1007F00000000000000000000000000000000000F9
:1008000000000000000000000000000000000000E8
:1008100000000000000000000000000000000000D8
:1008200000000000000000000000000000000000C8
:1008300000000000000000000000000000000000B8
:1008400000000000000000000000000000000000A8
:100850000000000000000000000000000000000098
:100860000000000000000000000000000000000088
:100870000000000000000000000000000000000078
:100880000000000000000000000000000000000068
:100890000000000000000000000000000000000058
:1008A0000000000000000000000000000000000048
:0808B000000000000000000040
:0400000500000411E2
:00000001FF
